{
  "_format": "hh-sol-artifact-1",
  "contractName": "BookSell",
  "sourceName": "contracts/bookSell.sol",
  "abi": [
    {
      "inputs": [],
      "stateMutability": "nonpayable",
      "type": "constructor"
    },
    {
      "inputs": [
        {
          "internalType": "string",
          "name": "name",
          "type": "string"
        },
        {
          "internalType": "string",
          "name": "book",
          "type": "string"
        },
        {
          "internalType": "string",
          "name": "writer",
          "type": "string"
        }
      ],
      "name": "buyBook",
      "outputs": [],
      "stateMutability": "payable",
      "type": "function"
    },
    {
      "inputs": [],
      "name": "getReceipts",
      "outputs": [
        {
          "components": [
            {
              "internalType": "uint256",
              "name": "timestamp",
              "type": "uint256"
            },
            {
              "internalType": "string",
              "name": "name",
              "type": "string"
            },
            {
              "internalType": "address",
              "name": "buyer",
              "type": "address"
            },
            {
              "internalType": "string",
              "name": "book",
              "type": "string"
            },
            {
              "internalType": "string",
              "name": "writer",
              "type": "string"
            }
          ],
          "internalType": "struct BookSell.Receipt[]",
          "name": "",
          "type": "tuple[]"
        }
      ],
      "stateMutability": "view",
      "type": "function"
    }
  ],
  "bytecode": "0x608060405234801561001057600080fd5b50336000806101000a81548173ffffffffffffffffffffffffffffffffffffffff021916908373ffffffffffffffffffffffffffffffffffffffff160217905550610c69806100606000396000f3fe6080604052600436106100295760003560e01c8063785975221461002e578063c2bfba7b14610059575b600080fd5b34801561003a57600080fd5b50610043610075565b60405161005091906106c6565b60405180910390f35b610073600480360381019061006e9190610831565b6102ea565b005b60606001805480602002602001604051908101604052809291908181526020016000905b828210156102e157838290600052602060002090600502016040518060a0016040529081600082015481526020016001820180546100d690610907565b80601f016020809104026020016040519081016040528092919081815260200182805461010290610907565b801561014f5780601f106101245761010080835404028352916020019161014f565b820191906000526020600020905b81548152906001019060200180831161013257829003601f168201915b505050505081526020016002820160009054906101000a900473ffffffffffffffffffffffffffffffffffffffff1673ffffffffffffffffffffffffffffffffffffffff1673ffffffffffffffffffffffffffffffffffffffff1681526020016003820180546101be90610907565b80601f01602080910402602001604051908101604052809291908181526020018280546101ea90610907565b80156102375780601f1061020c57610100808354040283529160200191610237565b820191906000526020600020905b81548152906001019060200180831161021a57829003601f168201915b5050505050815260200160048201805461025090610907565b80601f016020809104026020016040519081016040528092919081815260200182805461027c90610907565b80156102c95780601f1061029e576101008083540402835291602001916102c9565b820191906000526020600020905b8154815290600101906020018083116102ac57829003601f168201915b50505050508152505081526020019060010190610099565b50505050905090565b6000341161032d576040517f08c379a000000000000000000000000000000000000000000000000000000000815260040161032490610995565b60405180910390fd5b60008054906101000a900473ffffffffffffffffffffffffffffffffffffffff1673ffffffffffffffffffffffffffffffffffffffff166108fc349081150290604051600060405180830381858888f19350505050158015610393573d6000803e3d6000fd5b5060016040518060a001604052804281526020018581526020013373ffffffffffffffffffffffffffffffffffffffff16815260200184815260200183815250908060018154018082558091505060019003906000526020600020906005020160009091909190915060008201518160000155602082015181600101908161041b9190610b61565b5060408201518160020160006101000a81548173ffffffffffffffffffffffffffffffffffffffff021916908373ffffffffffffffffffffffffffffffffffffffff16021790555060608201518160030190816104789190610b61565b50608082015181600401908161048e9190610b61565b505050505050565b600081519050919050565b600082825260208201905092915050565b6000819050602082019050919050565b6000819050919050565b6104d5816104c2565b82525050565b600081519050919050565b600082825260208201905092915050565b60005b838110156105155780820151818401526020810190506104fa565b60008484015250505050565b6000601f19601f8301169050919050565b600061053d826104db565b61054781856104e6565b93506105578185602086016104f7565b61056081610521565b840191505092915050565b600073ffffffffffffffffffffffffffffffffffffffff82169050919050565b60006105968261056b565b9050919050565b6105a68161058b565b82525050565b600060a0830160008301516105c460008601826104cc565b50602083015184820360208601526105dc8282610532565b91505060408301516105f1604086018261059d565b50606083015184820360608601526106098282610532565b915050608083015184820360808601526106238282610532565b9150508091505092915050565b600061063c83836105ac565b905092915050565b6000602082019050919050565b600061065c82610496565b61066681856104a1565b935083602082028501610678856104b2565b8060005b858110156106b457848403895281516106958582610630565b94506106a083610644565b925060208a0199505060018101905061067c565b50829750879550505050505092915050565b600060208201905081810360008301526106e08184610651565b905092915050565b6000604051905090565b600080fd5b600080fd5b600080fd5b600080fd5b7f4e487b7100000000000000000000000000000000000000000000000000000000600052604160045260246000fd5b61073e82610521565b810181811067ffffffffffffffff8211171561075d5761075c610706565b5b80604052505050565b60006107706106e8565b905061077c8282610735565b919050565b600067ffffffffffffffff82111561079c5761079b610706565b5b6107a582610521565b9050602081019050919050565b82818337600083830152505050565b60006107d46107cf84610781565b610766565b9050828152602081018484840111156107f0576107ef610701565b5b6107fb8482856107b2565b509392505050565b600082601f830112610818576108176106fc565b5b81356108288482602086016107c1565b91505092915050565b60008060006060848603121561084a576108496106f2565b5b600084013567ffffffffffffffff811115610868576108676106f7565b5b61087486828701610803565b935050602084013567ffffffffffffffff811115610895576108946106f7565b5b6108a186828701610803565b925050604084013567ffffffffffffffff8111156108c2576108c16106f7565b5b6108ce86828701610803565b9150509250925092565b7f4e487b7100000000000000000000000000000000000000000000000000000000600052602260045260246000fd5b6000600282049050600182168061091f57607f821691505b602082108103610932576109316108d8565b5b50919050565b600082825260208201905092915050565b7f5061796d656e74206973206e6f742061636365707461626c6500000000000000600082015250565b600061097f601983610938565b915061098a82610949565b602082019050919050565b600060208201905081810360008301526109ae81610972565b9050919050565b60008190508160005260206000209050919050565b60006020601f8301049050919050565b600082821b905092915050565b600060088302610a177fffffffffffffffffffffffffffffffffffffffffffffffffffffffffffffffff826109da565b610a2186836109da565b95508019841693508086168417925050509392505050565b6000819050919050565b6000610a5e610a59610a54846104c2565b610a39565b6104c2565b9050919050565b6000819050919050565b610a7883610a43565b610a8c610a8482610a65565b8484546109e7565b825550505050565b600090565b610aa1610a94565b610aac818484610a6f565b505050565b5b81811015610ad057610ac5600082610a99565b600181019050610ab2565b5050565b601f821115610b1557610ae6816109b5565b610aef846109ca565b81016020851015610afe578190505b610b12610b0a856109ca565b830182610ab1565b50505b505050565b600082821c905092915050565b6000610b3860001984600802610b1a565b1980831691505092915050565b6000610b518383610b27565b9150826002028217905092915050565b610b6a826104db565b67ffffffffffffffff811115610b8357610b82610706565b5b610b8d8254610907565b610b98828285610ad4565b600060209050601f831160018114610bcb5760008415610bb9578287015190505b610bc38582610b45565b865550610c2b565b601f198416610bd9866109b5565b60005b82811015610c0157848901518255600182019150602085019450602081019050610bdc565b86831015610c1e5784890151610c1a601f891682610b27565b8355505b6001600288020188555050505b50505050505056fea2646970667358221220c9f27f705b67b951e1f1d82e36d21e4ff6e2419fa78b5393b9c3213928c55f3664736f6c63430008110033",
  "linkReferences": {},
  "deployedLinkReferences": {}
}